:100000000C94DA000C9402010C9402010C9402018D
:100010000C9402010C9402010C9402010C94020154
:100020000C9402010C9402010C9402010C94020144
:100030000C9402010C9402010C9402010C94020134
:100040000C9411080C9402010C94DF070C94B9076E
:100050000C9402010C9402010C9402010C94020114
:100060000C9402010C940201494E505554004F5516
:10007000545055540053544154455343414E004E3F
:100080004F5F444953504C41595F434C4541523DA9
:100090003100444154415F434F4F4C444F574E3D14
:1000A00030004F55545F434F4F4C444F574E3D30F7
:1000B0000050414745535550504F52543D31005523
:1000C000495F545950453D3000495347454E4552CC
:1000D00049433D3100415554484F523D6439323314
:1000E000373934336637353936386438316531322B
:1000F0006166663132613835613234300033004335
:100100004F52452D4C414E44494E472047454152A0
:10011000204C455645520065623664626336642D54
:10012000613137392D343631392D383261612D66E0
:1001300030373930363230396663640053504144C9
:1001400000415454414348494E472043414C4C429E
:1001500041434B53210000000000250028002B00E4
:1001600000000000240027002A00000000002300F7
:100170002600290004040404040404040202020208
:10018000020203030303030301020408102040805A
:1001900001020408102001020408102000000008D9
:1001A000000201000003040700000000000000003E
:1001B0005B082D0C11241FBECFEFD8E0DEBFCDBFF2
:1001C00025E0AAE1B2E001C01D92A73DB207E1F728
:1001D00012E0A0E0B1E0EAE9FEE102C005900D9274
:1001E000AA31B107D9F710E0C9EDD0E004C02197DA
:1001F000FE010E943F0DC83DD107C9F70E942309A7
:100200000C94400F0C940000AC0110921C039091D0
:100210006C0580916B05FA01BF01641B750B209181
:100220001C03308130931C03931304C0921302C04B
:1002300010921C033081311104C0921721F0CB01C0
:1002400008953817D1F33196E7CF0F931F93CF93CB
:10025000DF9380916005882309F446C0D0E0C0E0B8
:10026000813029F482E080936005C0E2D3E0809180
:100270006105882341F1209721F4C0916505D09153
:1002800066058E01CE010E940401892B29F4219676
:10029000F80180818111F5CFF8018081882309F16F
:1002A000C8010E940401F801E80FF91F808188232A
:1002B00011F010823196F0936605E0936505109376
:1002C0006405009363058091630590916405892B13
:1002D00059F081E080936105DF91CF911F910F91DB
:1002E000089510E000E0EBCF80E0F6CFDC01ED9167
:1002F000FC910190F081E02D0994EF92FF920F9311
:100300001F93CF93DF93209117032223E9F08C01F1
:1003100060916B0580916805909169050E94760156
:10032000E0906805F0906905E801FE01649166239C
:1003300059F0D701ED91FC910190F081E02DC701BA
:1003400009952196892B89F7DF91CF911F910F9104
:10035000FF90EF900895CF93DF932091170322230E
:10036000D1F0EC0160916B05809168059091690571
:100370000E94760180916805909169054C815D81AC
:1003800068817981DC01ED91FC910280F381E02D9F
:10039000DF91CF910994DF91CF910895AF92BF92F1
:1003A000CF92DF92EF92FF920F931F93CF93DF9341
:1003B0006C017B018B01040F151FEB015E01AE1870
:1003C000BF08C017D10759F06991D601ED91FC9192
:1003D0000190F081E02DC6010995892B79F7C501BF
:1003E000DF91CF911F910F91FF90EF90DF90CF9011
:1003F000BF90AF900895FC01538D448D252F30E0C0
:10040000842F90E0821B930B541710F0CF96089521
:1004100001970895FC01918D828D981761F0A28D4E
:10042000AE0FBF2FB11D5D968C91928D9F5F9F7314
:10043000928F90E008958FEF9FEF0895FC01918DCA
:10044000828D981731F0828DE80FF11D858D90E037
:1004500008958FEF9FEF0895FC01918D228D892FD4
:1004600090E0805C9F4F821B91098F7399270895BC
:100470008AE792E00E942C0221E0892B09F420E017
:10048000822F089580E090E0892B29F00E943802A5
:1004900081110C9400000895FC01A48DA80FB92FC0
:1004A000B11DA35ABF4F2C91848D90E001968F739C
:1004B0009927848FA689B7892C93A089B1898C91BB
:1004C000837080648C93938D848D981306C002880A
:1004D000F389E02D80818F7D80830895EF92FF92D4
:1004E0000F931F93CF93DF93EC0181E0888F9B8D57
:1004F0008C8D98131AC0E889F989808185FF15C011
:100500009FB7F894EE89FF896083E889F989808133
:100510008370806480839FBF81E090E0DF91CF9102
:100520001F910F91FF90EF900895F62E0B8D10E024
:100530000F5F1F4F0F731127E02E8C8D8E110CC093
:100540000FB607FCFACFE889F989808185FFF5CFDE
:10055000CE010E944C02F1CFEB8DEC0FFD2FF11D6F
:10056000E35AFF4FF0829FB7F8940B8FEA89FB891B
:1005700080818062CFCFCF93DF93EC01888D882379
:10058000B9F0AA89BB89E889F9898C9185FD03C0F6
:10059000808186FD0DC00FB607FCF7CF8C9185FFDB
:1005A000F2CF808185FFEDCFCE010E944C02E9CFD2
:1005B000DF91CF910895833081F028F4813099F054
:1005C0008230A9F008958730A9F08830C9F08430CE
:1005D000B1F4809180008F7D03C0809180008F777F
:1005E00080938000089584B58F7784BD089584B585
:1005F0008F7DFBCF8091B0008F778093B0000895FE
:100600008091B0008F7DF9CF1F93CF93DF93282F78
:1006100030E0F901E456FE4F8491F901E857FE4FAE
:10062000D491F901EC58FE4FC491CC23A9F0162FB8
:1006300081110E94DB02EC2FF0E0EE0FFF1FEA5A5F
:10064000FE4FA591B4918FB7F894EC91111108C0A9
:10065000D095DE23DC938FBFDF91CF911F9108955A
:10066000DE2BF8CF3FB7F89480911B0290911C02CB
:10067000A0911D02B0911E0226B5A89B05C02F3F78
:1006800019F00196A11DB11D3FBFBA2FA92F982FB8
:100690008827BC01CD01620F711D811D911D42E0B3
:1006A000660F771F881F991F4A95D1F708958F927B
:1006B0009F92AF92BF92CF92DF92EF92FF924B0147
:1006C0005C010E9432036B017C010E9432036C19B1
:1006D0007D098E099F09683E734081059105A8F345
:1006E00021E0821A9108A108B10888EEC80E83E0C3
:1006F000D81EE11CF11C81149104A104B10429F756
:10070000FF90EF90DF90CF90BF90AF909F908F9031
:1007100008950E942501882359F081E080936105A6
:100720008093620580916305909164050C946D0C33
:100730001092620560E070E0CB010895CF930E94B3
:100740008903C62F0E948903672B682B692B29F028
:1007500061E08C2FCF910C94040360E0FACFFC0190
:1007600024813581232B49F068E371E080819181F8
:100770000E94300F21E0892B09F020E0822F08959C
:10078000CF93DF930E9425018823B1F081E080930D
:10079000610580936205C0916305D09164056CE3A7
:1007A00071E0CE010E94300F892B59F481E08093D3
:1007B0002502DF91CF91089510926205D0E0C0E04C
:1007C000EECF68E371E0CE010E94300F892B89F7EC
:1007D00010922502EECFFB0101900020E9F731973E
:1007E000AF01461B570BDC01ED91FC910280F381B8
:1007F000E02D0994809117038823A1F060916A0588
:1008000080916805909169050E94760180911F038F
:10081000882341F062E471E0809168059091690558
:100820000E94EB0310921E031092170380E00895BC
:100830008F929F92AF92BF92EF92FF920F931F936E
:10084000CF93DF93CDB7DEB7A1970FB6F894DEBF95
:100850000FBECDBF7C01FA01CB0119A2223008F4F2
:100860002AE08E010F5D1F4F822E912CB12CA12CFE
:10087000BF01A50194010E941D0DF901CA016A3052
:100880000CF5605DD8016E938D01232B242B252B55
:1008900079F790E080E0109721F0BD01C7010E9438
:1008A000EB03A1960FB6F894DEBF0FBECDBFDF916C
:1008B000CF911F910F91FF90EF90BF90AF909F90BD
:1008C0008F900895695CDECFCF92DF92EF92FF9216
:1008D000CF93DF936C0160916B05809168059091D7
:1008E00069050E947601C0916805D09169050D2CBB
:1008F000000CEE08FF082AE0B701A601F7FE0CC0C5
:100900006DE2CE010E94760144275527BA014C19A9
:100910005D096E097F092AE0CE01DF91CF91FF903A
:10092000EF90DF90CF900C941804909117039111E1
:1009300010C091E09093170390931E03482F50E04E
:1009400070E060E02AE080916805909169050C9460
:100950001804089580911703811119C083E00E9443
:10096000950480911703882381F060916B05809135
:100970006805909169050E94760165E471E08091B7
:100980006805909169050E94EB030C94FA030895A1
:100990000F931F93CF93DF93EC0188819981009788
:1009A00059F02A813B812617370730F081E0DF912B
:1009B000CF911F910F9108958B016F5F7F4F0E9420
:1009C0006A0E009759F0998388831B830A832C81D0
:1009D0003D81232B59F7FC011082E8CF80E0E7CF5F
:1009E000CF93DF93EC0188819981009711F00E94E9
:1009F000E10D198218821D821C821B821A82DF91EE
:100A0000CF910895EF92FF920F931F93CF93DF93AF
:100A1000EC017B018A01BA010E94C80481110BC05C
:100A2000CE010E94F004CE01DF91CF911F910F9172
:100A3000FF90EF9008951D830C83B7018881998101
:100A40000E94390FF0CFEF92FF920F931F93CF9335
:100A5000DF93CDB7DEB762970FB6F894DEBF0FBE57
:100A6000CDBF8C01CB01F80111821082138212825A
:100A7000158214824AE09E012F5F3F4F7901B90130
:100A80000E94940CF70101900020E9F73197AF0123
:100A90004E195F09B701C8010E94020562960FB6A0
:100AA000F894DEBF0FBECDBFDF91CF911F910F91A4
:100AB000FF90EF900895FB01DC0111961C921E92AD
:100AC00013961C921E92129715961C921E921497C2
:100AD0008617970749F0608171816115710521F0D2
:100AE000448155810C9402050895FC011182108205
:100AF0001382128215821482FB0101900020E9F713
:100B00003197AF01461B570B0C940205FC01808105
:100B10009181009711F00C94E10D0895CF92DF922E
:100B2000EF92FF920F931F93CF93DF93CDB7DEB772
:100B300068970FB6F894DEBF0FBECDBF0E942501A7
:100B4000882381F181E080936105809362050091A3
:100B500063051091640565E571E0C8010E94300FDE
:100B6000892B29F580E00E9495048CE391E00E9496
:100B70007D0187E191E00E947D018FEF90E00E946E
:100B80007D0180911703882321F082E090E00E948C
:100B900064048DEF90E00E947D0185ED90E00E945D
:100BA0007D014CC01092620510E000E0D4CF6AE5F0
:100BB00071E0C8010E94300F892B09F050C080E01D
:100BC0000E94950480911703882381F060916B0542
:100BD00080916805909169050E9476016FE571E04A
:100BE00080916805909169050E94EB030E9489033A
:100BF0006B017C0180911703882301F160916B05E3
:100C000080916805909169050E94760100916805C0
:100C1000109169052AE0B701A601F7FE0CC06DE24C
:100C2000C8010E94760144275527BA014C195D0975
:100C30006E097F092AE0C8010E9418040E94FA0385
:100C400068960FB6F894DEBF0FBECDBFDF91CF918F
:100C50001F910F91FF90EF90DF90CF90089564E681
:100C600071E0C8010E94300F892B09F033C180E088
:100C70000E94950480911703882381F060916B0591
:100C800080916805909169050E9476016BE671E09C
:100C900080916805909169050E94EB0389EC90E0D2
:100CA0000E947D018FEB90E00E947D0181EB90E03E
:100CB0000E947D0182EA90E00E947D0182E990E03D
:100CC0000E947D018FE790E00E947D010E94FA035F
:100CD0000CE512E09EE1E92E91E0F92EC8010E9498
:100CE000AF03882309F472C006E212E08EE0E82E1A
:100CF00081E0F82EC8010E94AF038111CEC06EE7DB
:100D000071E0CE0143960E94750563E871E0CE0163
:100D10000D960E947505B801CE0107960E945B05ED
:100D2000F701C190D1907F0180E00E9495048EE68A
:100D300090E00E947D0180911703882319F0C6017D
:100D40000E946404BE01695F7F4FCE0101960E943C
:100D50005B05CE0101960E94AB01CE0101960E9477
:100D60008605BE01635F7F4FCE0101960E945B0541
:100D7000CE0101960E94AB01CE0101960E9486052C
:100D8000BE016D5E7F4FCE0101960E945B05CE01D4
:100D900001960E94AB01CE0101960E9486050E9439
:100DA000FA03CE0107960E948605CE010D960E9499
:100DB0008605CE0143960E94860565E070E080E0DE
:100DC00090E00E9457030A5F1F4F94CF62E771E0E3
:100DD000CE0143960E94750567E771E0CE010D963E
:100DE0000E947505B801CE0107960E945B05F701C8
:100DF000C190D1907F0180E00E94950488E690E048
:100E00000E947D0180911703882319F0C6010E947A
:100E10006404BE01695F7F4FCE0101960E945B05AD
:100E2000CE0101960E94AB01CE0101960E9486057B
:100E3000BE01635F7F4FCE0101960E945B05CE012C
:100E400001960E94AB01CE0101960E948605BE016B
:100E50006D5E7F4FCE0101960E945B05CE0101962B
:100E60000E94AB01CE0101960E9486050E94FA0302
:100E7000CE0107960E948605CE010D960E9486053A
:100E8000CE0143960E94860565E070E080E090E028
:100E90000E9457030A5F1F4F21CF809117038111D2
:100EA000CDCE0E94950480911703882381F0609134
:100EB0006B0580916805909169050E94760164E652
:100EC00071E080916805909169050E94EB030E9492
:100ED000FA03B4CE67E871E0C8010E94300F892B95
:100EE00009F0AECE81E08093250280E00E94950457
:100EF00085E790E054CE0F931F93CF93DF9300D0FC
:100F000000D000D0CDB7DEB78C0188E00E949504F8
:100F1000B801CE0101960E945B05809117038823DA
:100F2000B9F060916B0580916805909169050E9408
:100F3000760180916805909169054D815E81698196
:100F40007A81DC01ED91FC910280F381E02D09951D
:100F5000CE0101960E9486050E94FA0326960FB6DE
:100F6000F894DEBF0FBECDBFDF91CF911F910F91DF
:100F700008951F920F920FB60F9211242F933F9353
:100F80004F935F936F937F938F939F93AF93BF9391
:100F9000EF93FF938AE792E00E944C02FF91EF915A
:100FA000BF91AF919F918F917F916F915F914F9181
:100FB0003F912F910F900FBE0F901F9018951F9289
:100FC0000F920FB60F9211242F938F939F93EF934D
:100FD000FF93E0918A02F0918B028081E091900270
:100FE000F091910282FD1BC09081809193028F5FEE
:100FF0008F7320919402821741F0E0919302F0E008
:10100000E658FD4F958F80939302FF91EF919F914A
:101010008F912F910F900FBE0F901F901895808188
:10102000F4CF1F920F920FB60F9211242F933F937C
:101030008F939F93AF93BF9380912102909122024F
:10104000A0912302B091240230911A0223E0230FD1
:101050002D3758F50196A11DB11D20931A028093DA
:10106000210290932202A0932302B0932402809144
:101070001B0290911C02A0911D02B0911E020196CC
:10108000A11DB11D80931B0290931C02A0931D0211
:10109000B0931E02BF91AF919F918F913F912F917D
:1010A0000F900FBE0F901F90189526E8230F029601
:1010B000A11DB11DD2CF10927D0210927C0288EE4C
:1010C00093E0A0E0B0E080937E0290937F02A09333
:1010D0008002B09381028AE291E090937B02809338
:1010E0007A0285EC90E0909387028093860284ECEC
:1010F00090E0909389028093880280EC90E0909336
:101100008B0280938A0281EC90E090938D02809311
:101110008C0282EC90E090938F0280938E0286EC9A
:1011200090E090939102809390021092930210921B
:101130009402109295021092960210926E051092EF
:101140006D058AE792E09093690580936805109297
:101150001F038CE280936B058BE380936A058FE21B
:1011600080936C0580E480931A038FE380931B03C4
:10117000109219031092640510926305109266058F
:101180001092650581E080936105EFE6F5E011922C
:10119000119285E0E33DF807D1F710921E0361E953
:1011A00071E08CE592E00E94750569E971E082E6E4
:1011B00092E00E9475056CE971E088E692E00E9479
:1011C000750560EA71E08EE692E00E94750568E3BD
:1011D00071E084E792E00E94750565EA71E086E2BD
:1011E00092E00E9475056FEA71E08CE292E00E9445
:1011F000750568EB71E082E392E00E94750566EC8C
:1012000071E088E392E00E94750566ED71E08EE37F
:1012100092E00E94750564EE71E084E492E00E9421
:10122000750564EF71E08AE492E00E94750563E061
:1012300072E080E592E00E94750568E371E086E562
:1012400092E00C947505CF93DF93CDB7DEB762972C
:101250000FB6F894DEBF0FBECDBF789484B5826020
:1012600084BD84B5816084BD85B5826085BD85B54A
:10127000816085BD80916E00816080936E001092C8
:101280008100809181008260809381008091810043
:1012900081608093810080918000816080938000D4
:1012A0008091B10084608093B1008091B000816032
:1012B0008093B00080917A00846080937A0080915E
:1012C0007A00826080937A0080917A0081608093B6
:1012D0007A0080917A00806880937A001092C10031
:1012E000E0918A02F0918B0282E08083E091860295
:1012F000F09187021082E0918802F09189028FECD0
:10130000808310929202E0918E02F0918F0286E02B
:101310008083E0918C02F0918D02808180618083D6
:10132000E0918C02F0918D02808188608083E09151
:101330008C02F0918D02808180688083E0918C0224
:10134000F0918D0280818F7D8083809117038111C0
:1013500009C083E00E94950481E491E00E947D0130
:101360000E94FA038AEA94E090936E0580936D05DB
:101370002EE835E03093700520936F0520EC33E0C4
:1013800030937405209373059093760580937505CB
:101390008EE993E090937C0580937B051092200268
:1013A00010921F0216E0E0901F02F09020021E9D96
:1013B000C0011F9D900D1124845A9D4F0E94AF03C0
:1013C00081113BC0F701EE0FFF1FE25EFE4F8081EF
:1013D00091819927FC01E857FE4F24918C589E4F2C
:1013E000FC0184918823C9F090E0880F991FFC01CB
:1013F000E05AFE4F45915491FC01EA5AFE4FA591E7
:10140000B4919FB7F894FA013081822F809583239D
:101410008083EC912E2B2C939FBF80911F02909183
:10142000200201969093200280931F0265E070E0F5
:1014300080E090E00E945703B6CF109220021092F5
:101440001F0216E0E0901F02F09020021E9DC001D6
:101450001F9D900D11248A5D9D4F0E94AF03811145
:1014600040C0F701EE0FFF1FE25FFE4F80819181C8
:101470009927FC01E857FE4F24918C589E4FFC01A0
:101480008491882399F090E0880F991FFC01E05A1D
:10149000FE4FA591B491FC01EA5AFE4F85919491BB
:1014A0008FB7F894EC91E22BEC938FBFE0901F0282
:1014B000F0902002F701EE0FFF1FE25FFE4F60E0A9
:1014C00080810E940403FFEFEF1AFF0AF0922002CE
:1014D000E0921F0265E070E080E090E00E94570318
:1014E000B1CF1092200210921F0277247394809142
:1014F0002502882309F4B4C03CE5A32E32E0B32EC4
:1015000040E0C42E41E0D42E5EE1852E51E0952EC0
:10151000C5010E94AF038111A3C0D401ED90FD90DD
:101520004D0197013327F901E456FE4F8491F901EB
:10153000E857FE4F1491F901EC58FE4F0491002337
:1015400009F442C081110E94DB02E02FF0E0EE0FAF
:10155000FF1FE659FE4FA591B491EC911E2391E037
:1015600080E009F490E0092F182FF6018081918125
:101570008017910709F45FC0B701CE010D960115E0
:10158000110529F10E942305BE01635F7F4FCE0143
:1015900007960E945B05EB84FC84F2E0EF0EF11CE1
:1015A000B701CE0107960E94C804882329F12F8134
:1015B00038858B859C8564E172E0820F931F0E94C1
:1015C000390FFC86EB861CC010E000E0CECF0E94F5
:1015D0002305BE01635F7F4FCE0107960E945B0526
:1015E000EB84FC8422E0E20EF11CB701CE010796E9
:1015F0000E94C80481112DC0CE0107960E94F004FC
:10160000BE01695F7F4FCE0101960E945B0580910C
:101610001703811104C0CE0101960E947B07CE0101
:1016200001960E948605CE0107960E948605CE018E
:101630000D960E948605D6010D931D936D0164E100
:1016400070E080E090E00E945703B6E0AB0EB11C62
:101650005FCF2F8138858B859C8567E172E0ADCFA8
:1016600080911E038111E5C0809168059091690504
:10167000DC01ED91FC910084F185E02D0995892B29
:1016800009F4D7C08091680590916905DC01ED915E
:10169000FC910084F185E02D099500E012E08115B0
:1016A000924064F48091680590916905DC01ED91A8
:1016B000FC910084F185E02D09958C01E09068058E
:1016C000F090690590E6C92E93E0D92E5601912C31
:1016D000812C08151905B9F12FB7F89480912102D2
:1016E00090912202A0912302B09124022FBFF70112
:1016F00080879187A287B387D701ED91FC910284FF
:10170000F385E02DC701099597FFA0C02FB7F89486
:101710008091210290912202A0912302B091240293
:101720002FBFF7014085518562857385841B950B1A
:10173000A60BB70B44815581668177818417950785
:10174000A607B707C8F2F12CE12C0E151F0509F406
:1017500087CFD6019D916D011092600530916C0587
:1017600020911D0390931D03931304C0921302C094
:1017700010921D0380911903E82FF0E040916A0553
:10178000E95EFC4F94133DC03217D9F111868823CE
:1017900021F07092600510921D03109219031092AF
:1017A00064051092630510926605109265057092AB
:1017B0006105B0906005B1E0BB1237C00E94250101
:1017C000882341F1B0926105B09262058091630572
:1017D000909164050E944F0C809318038233F8F4B3
:1017E000209162052223D9F0FC01FF27EE0FFF1F95
:1017F000E159FA4F0190F081E02D309781F0099581
:1018000014C091878F5F8093190390911B038917F0
:1018100020F6CFCF1092620590E080E0DDCFE0911E
:101820006D05F0916E05309751F7EFEFEE1AFE0A55
:101830008CCF80E090E0892B09F459CE0E943802C9
:10184000882309F452CE0E9400004FCED5018D931B
:101850005D01BFEF8B1A9B0A3CCFCF93DF93CCE5A2
:10186000D2E02697CE010E94860582E0C632D807D4
:10187000C1F784E792E00E9486058EE692E00E941E
:10188000860588E692E00E94860582E692E00E9444
:1018900086058CE592E0DF91CF910C948605FC01E2
:1018A00088279927E89421912032E9F3293010F014
:1018B0002E30C8F32B3241F02D3239F4689404C035
:1018C0000E94B40C820F911D219120532A30C0F345
:1018D0001EF4909581959F4F08951F93FC019927C1
:1018E0008827BC01E89411911032E9F3193010F007
:1018F0001E30C8F31B3251F01D3249F4689406C003
:101900000E949F0C610F711D811D911D119110533B
:101910001A30B0F33EF490958095709561957F4FA5
:101920008F4F9F4F1F910895BB274A3031F4992361
:1019300022F4BDE2909581959F4F0C94BD0C592FD8
:10194000482F372F262F660F771F881F991F660F86
:10195000771F881F991F620F731F841F951F660FC3
:10196000771F881F991F08957AE0979F902D879F72
:10197000802D910D11240895BB27FB015527AA271F
:10198000880F991FAA1FA41710F0A41B839550510C
:10199000B9F7A05DAA3308F0A95DA193009779F784
:1019A000B111B1931192CB010C94D60CDC01FC0166
:1019B000672F71917723E1F7329704C07C916D9383
:1019C00070836291AE17BF07C8F308952F923F92BC
:1019D0004F925F926F927F928F929F92AF92BF923F
:1019E000CF92DF92EF92FF920F931F93CF93DF93EB
:1019F000CDB7DEB7CA1BDB0B0FB6F894DEBF0FBE48
:101A0000CDBF09942A88398848885F846E847D8494
:101A10008C849B84AA84B984C884DF80EE80FD8096
:101A20000C811B81AA81B981CE0FD11D0FB6F8940C
:101A3000DEBF0FBECDBFED010895A1E21A2EAA1B95
:101A4000BB1BFD010DC0AA1FBB1FEE1FFF1FA2176E
:101A5000B307E407F50720F0A21BB30BE40BF50B6B
:101A6000661F771F881F991F1A9469F760957095F4
:101A7000809590959B01AC01BD01CF010895EE0FBB
:101A8000FF1F0590F491E02D09940F931F93CF93BE
:101A9000DF938230910510F482E090E0E091D5056B
:101AA000F091D60530E020E0B0E0A0E0309799F466
:101AB0002115310509F44AC0281B390B24303105A2
:101AC000D8F58A819B816115710589F1FB019383AA
:101AD0008283FE0111C04081518102811381481728
:101AE0005907E0F04817590799F4109761F01296DA
:101AF0000C93129713961C933296CF01DF91CF91DE
:101B00001F910F9108950093D5051093D605F4CF3A
:101B10002115310551F04217530738F0A901DB01B7
:101B20009A01BD01DF01F801C1CFEF01F9CF909318
:101B3000D6058093D505CDCFFE01E20FF31F81932B
:101B400091932250310939832883D7CF2091D3052F
:101B50003091D405232B41F420910A0130910B01DF
:101B60003093D4052093D3052091080130910901C9
:101B70002115310541F42DB73EB740910C0150912C
:101B80000D01241B350BE091D305F091D405E2172C
:101B9000F307A0F42E1B3F0B2817390778F0AC0190
:101BA0004E5F5F4F2417350748F04E0F5F1F50936D
:101BB000D4054093D305819391939FCFF0E0E0E06B
:101BC0009CCFCF93DF930097E9F0FC01329713820B
:101BD0001282A091D505B091D605ED0130E020E04C
:101BE0001097A1F420813181820F931F2091D3059A
:101BF0003091D4052817390709F061C0F093D40556
:101C0000E093D305DF91CF910895EA01CE17DF0766
:101C1000E8F54A815B819E0141155105B1F7E90163
:101C2000FB83EA8349915991C40FD51FEC17FD0737
:101C300061F4808191810296840F951FE901998357
:101C40008883828193819B838A83F0E0E0E012960F
:101C50008D919C9113970097B9F52D913C91119717
:101C6000CD010296820F931F2091D3053091D405A8
:101C70002817390739F6309751F51092D60510928A
:101C8000D505B093D405A093D305BCCFD383C2832D
:101C900040815181840F951FC817D90761F44E5FA9
:101CA0005F4F88819981480F591F518340838A81F2
:101CB0009B81938382832115310509F0B0CFF09386
:101CC000D605E093D5059ECFFD01DC01C0CF138280
:101CD0001282D7CFB0E0A0E0E0E7FEE00C94E80C81
:101CE0008C01009751F4CB010E94450D8C01C80175
:101CF000CDB7DEB7E0E10C94040DFC01E60FF71F51
:101D00009C0122503109E217F30708F49DC0D90164
:101D1000CD91DC911197C617D70798F0C530D10542
:101D200030F3CE0104978617970708F3C61BD70B2D
:101D30002297C193D1936D937C93CF010E94E10DC3
:101D4000D6CF5B01AC1ABD0A4C018C0E9D1EA09132
:101D5000D505B091D605512C412CF12CE12C1097D2
:101D600031F58091D3059091D4058815990509F036
:101D70005CC04616570608F058C080910801909143
:101D80000901009741F48DB79EB740910C01509125
:101D90000D01841B950BE817F90708F055C0F09367
:101DA000D405E093D305F90171836083A0CF8D91B1
:101DB0009C91119712966C90129713967C901397A2
:101DC000A815B90559F56C0142E0C40ED11CCA141E
:101DD000DB0420F1AC014A195B09DA011296159770
:101DE00080F06282738251834083D9016D937C932A
:101DF000E114F10471F0D7011396FC93EE9312975E
:101E000076CF22968C0F9D1FF90191838083F30179
:101E1000EFCFF093D605E093D50569CF4816590664
:101E200008F42C017D01D3019ACFCB010E94450D0E
:101E30007C01009749F0AE01B8010E94270FC8014C
:101E40000E94E10D870153CF10E000E050CFFB016D
:101E5000DC0102C001900D9241505040D8F7089526
:101E6000FB01DC018D91019080190110D9F3990BD0
:101E70000895FB01DC0101900D920020E1F7089527
:101E800010E0C9EDD0E004C0FE010E943F0D219694
:0A1E9000CA3DD107C9F7F894FFCF4F
:101E9A00FFFFFFFFFFFFFFFF0000D70580000300E1
:101EAA000C000B0007000A000900060008000E00DB
:101EBA000F0010001100000000006E02CE01FB01AD
:101ECA00BB022C020A021E02454E440053544152E0
:101EDA0054000D0A00554E4B4E4F574E20434F4D5E
:101EEA004D414E4400494E49540050494E47005016
:101EFA004F4E4700434F4E464947004F5054494FB3
:101F0A004E00535041445F5357495443480053507D
:101F1A0041445F4C4544005343414E535441544558
:101F2A000054524947474552005550004F46460013
:101F3A00444F574E004241434B4C49474854005383
:101F4A00454C454E4F4944004E4F53455F47454126
:101F5A00525F524544004E4F53455F474541525FD9
:101F6A00475245454E004C4546545F474541525FEE
:101F7A00524544004C4546545F474541525F4752DB
:101F8A0045454E0052494748545F474541525F52C2
:101F9A0045440052494748545F474541525F4752BA
:0A1FAA0045454E002C30002C31009C
:00000001FF
