:100000000C94DD000C9405010C9405010C94050181
:100010000C9405010C9405010C9405010C94050148
:100020000C9405010C9405010C9405010C94050138
:100030000C9405010C9405010C9405010C94050128
:100040000C94F1070C9405010C9461080C943B0886
:100050000C9405010C9405010C9405010C94050108
:100060000C9405010C940501494E505554004F5510
:10007000545055540053544154455343414E004E3F
:100080004F5F444953504C41595F434C4541523DA9
:100090003100444154415F434F4F4C444F574E3D14
:1000A00030004F55545F434F4F4C444F574E3D30F7
:1000B0000050414745535550504F52543D31005523
:1000C000495F545950453D3000495347454E4552CC
:1000D00049433D3100415554484F523D6439323314
:1000E000373934336637353936386438316531322B
:1000F00061666631326138356132343000342E3019
:100100000032004346542D4C414E44494E4720474F
:10011000454152204C45564552007B65623664622B
:100120006336642D613137392D343631392D38320B
:1001300061612D6630373930363230396663647D1F
:10014000005350414400415454414348494E4720D4
:1001500043414C4C4241434B5321000000000024DA
:100160000027002A000000000023002600290000CC
:10017000000000250028002B0004040404040404EB
:100180000402020202020203030303030301020446
:100190000810204080010204081020010204081009
:1001A0002000000008000201000003040700000016
:1001B0000000000000009308650C11241FBECFEF63
:1001C000D8E0DEBFCDBF25E0A6E2B2E001C01D92BF
:1001D000A33EB207E1F712E0A0E0B1E0EAE0FFE100
:1001E00002C005900D92A632B107D9F710E0CCED10
:1001F000D0E004C02197FE010E94770DCB3DD107CE
:10020000C9F70E945B090C94780F0C940000AC01B4
:10021000109228039091780580917705FA01BF012B
:10022000641B750B209128033081309328039313AE
:1002300004C0921302C0109228033081311104C00F
:10024000921721F0CB0108953817D1F33196E7CFFB
:100250000F931F93CF93DF9380916C05882309F44C
:1002600046C0D0E0C0E0813029F482E080936C0584
:10027000CCE2D3E080916D05882341F1209721F4F1
:10028000C0917105D09172058E01CE010E940701C7
:10029000892B29F42196F80180818111F5CFF8018D
:1002A0008081882309F1C8010E940701F801E80F45
:1002B000F91F8081882311F010823196F093720526
:1002C000E09371051093700500936F0580916F05A1
:1002D00090917005892B59F081E080936D05DF9135
:1002E000CF911F910F91089510E000E0EBCF80E0D7
:1002F000F6CF833081F028F4813099F08230A9F074
:1003000008958730A9F08830C9F08430B1F4809125
:1003100080008F7D03C0809180008F778093800064
:10032000089584B58F7784BD089584B58F7DFBCF04
:100330008091B0008F778093B00008958091B000D5
:100340008F7DF9CF1F93CF93DF93282F30E0F901F2
:10035000EF55FE4F8491F901E357FE4FD491F90117
:10036000E758FE4FC491CC23A9F0162F81110E94AB
:100370007901EC2FF0E0EE0FFF1FE159FE4FA59140
:10038000B4918FB7F894EC91111108C0D095DE2389
:10039000DC938FBFDF91CF911F910895DE2BF8CFB3
:1003A0003FB7F89480912E0290912F02A0913002D5
:1003B000B091310226B5A89B05C02F3F19F00196D8
:1003C000A11DB11D3FBFBA2FA92F982F8827BC01AF
:1003D000CD01620F711D811D911D42E0660F771FD7
:1003E000881F991F4A95D1F708958F929F92AF92D7
:1003F000BF92CF92DF92EF92FF924B015C010E947D
:10040000D0016B017C010E94D0016C197D098E091D
:100410009F09683E734081059105A8F321E0821A87
:100420009108A108B10888EEC80E83E0D81EE11C2F
:10043000F11C81149104A104B10429F7FF90EF90FD
:10044000DF90CF90BF90AF909F908F900895DC0188
:10045000ED91FC910190F081E02D0994EF92FF92D3
:100460000F931F93CF93DF93209123032223E9F06F
:100470008C016091770580917405909175050E94BB
:100480002702E0907405F0907505E801FE01649183
:10049000662359F0D701ED91FC910190F081E02D98
:1004A000C70109952196892B89F7DF91CF911F917B
:1004B0000F91FF90EF900895CF93DF932091230346
:1004C0002223D1F0EC016091770580917405909121
:1004D00075050E94270280917405909175054C81E5
:1004E0005D8168817981DC01ED91FC910280F3816D
:1004F000E02DDF91CF910994DF91CF910895AF92D4
:10050000BF92CF92DF92EF92FF920F931F93CF9300
:10051000DF936C017B018B01040F151FEB015E0162
:10052000AE18BF08C017D10759F06991D601ED91F7
:10053000FC910190F081E02DC6010995892B79F796
:10054000C501DF91CF911F910F91FF90EF90DF9048
:10055000CF90BF90AF900895FC01538D448D252F0F
:1005600030E0842F90E0821B930B541710F0CF964D
:10057000089501970895FC01918D828D981761F07F
:10058000A28DAE0FBF2FB11D5D968C91928D9F5F96
:100590009F73928F90E008958FEF9FEF0895FC0175
:1005A000918D828D981731F0828DE80FF11D858D28
:1005B00090E008958FEF9FEF0895FC01918D228DBB
:1005C000892F90E0805C9F4F821B91098F73992740
:1005D000089586E892E00E94DD0221E0892B09F46B
:1005E00020E0822F089580E090E0892B29F00E947E
:1005F000E90281110C9400000895FC01A48DA80F5C
:10060000B92FB11DA35ABF4F2C91848D90E0019654
:100610008F739927848FA689B7892C93A089B18974
:100620008C91837080648C93938D848D981306C015
:100630000288F389E02D80818F7D80830895EF9279
:10064000FF920F931F93CF93DF93EC0181E0888F8C
:100650009B8D8C8D98131AC0E889F989808185FF5C
:1006600015C09FB7F894EE89FF896083E889F989FE
:1006700080818370806480839FBF81E090E0DF9100
:10068000CF911F910F91FF90EF900895F62E0B8D53
:1006900010E00F5F1F4F0F731127E02E8C8D8E110E
:1006A0000CC00FB607FCFACFE889F989808185FF75
:1006B000F5CFCE010E94FD02F1CFEB8DEC0FFD2FA7
:1006C000F11DE35AFF4FF0829FB7F8940B8FEA8930
:1006D000FB8980818062CFCFCF93DF93EC01888D3F
:1006E0008823B9F0AA89BB89E889F9898C9185FDAD
:1006F00003C0808186FD0DC00FB607FCF7CF8C913B
:1007000085FFF2CF808185FFEDCFCE010E94FD02F3
:10071000E9CFDF91CF9108950E942801882359F0F5
:1007200081E080936D0580936E0580916F059091B7
:1007300070050C94A50C10926E0560E070E0CB0182
:100740000895CF930E948C03C62F0E948C03672BC1
:10075000682B692B29F061E08C2FCF910C94A201BA
:1007600060E0FACFFC0124813581232B49F068E356
:1007700071E0808191810E94680F21E0892B09F04E
:1007800020E0822F08951F93CF93DF930E942801CA
:100790008823B9F081E080936D0580936E05C09148
:1007A0006F05D09170056CE371E0CE010E94680F77
:1007B000892B61F481E080932802DF91CF911F9112
:1007C000089510926E05D0E0C0E0EDCF68E371E0CF
:1007D000CE010E94680F892B81F316E0C09126029A
:1007E000D09127021C9FC0011D9F900D11248E5C8B
:1007F0009D4F0E94B203811115C0FE01EE0FFF1F35
:10080000E25FFE4F60E080810E94A2012196D093BA
:100810002702C093260265E070E080E090E00E942D
:10082000F501DCCF10922802C8CFFB010190002017
:10083000E9F73197AF01461B570BDC01ED91FC91B5
:100840000280F381E02D0994809123038823A1F095
:100850006091760580917405909175050E9427023C
:1008600080912B03882341F062E471E0809174054C
:10087000909175050E94150410922A03109223038B
:1008800080E008958F929F92AF92BF92EF92FF9275
:100890000F931F93CF93DF93CDB7DEB7A1970FB61A
:1008A000F894DEBF0FBECDBF7C01FA01CB0119A2C7
:1008B000223008F42AE08E010F5D1F4F822E912C0A
:1008C000B12CA12CBF01A50194010E94550DF90185
:1008D000CA016A300CF5605DD8016E938D01232B3F
:1008E000242B252B79F790E080E0109721F0BD01B3
:1008F000C7010E941504A1960FB6F894DEBF0FBE83
:10090000CDBFDF91CF911F910F91FF90EF90BF90DE
:10091000AF909F908F900895695CDECFCF92DF9269
:10092000EF92FF92CF93DF936C01609177058091F6
:100930007405909175050E942702C0917405D091AD
:1009400075050D2C000CEE08FF082AE0B701A60182
:10095000F7FE0CC06DE2CE010E9427024427552706
:10096000BA014C195D096E097F092AE0CE01DF91B9
:10097000CF91FF90EF90DF90CF900C944204909134
:100980002303911110C091E09093230390932A03C5
:10099000482F50E070E060E02AE08091740590916B
:1009A00075050C9442040895CF93DF93909123032F
:1009B00091111AC0EB010E94BF0480912303882388
:1009C00079F06091770580917405909175050E948A
:1009D0002702BE0180917405909175050E9415044F
:1009E000DF91CF910C94240480E0DF91CF910895A2
:1009F00080912303811119C083E00E94BF0480917C
:100A00002303882381F0609177058091740590918C
:100A100075050E94270265E471E08091740590914C
:100A200075050E9415040C94240408950F931F93D8
:100A3000CF93DF93EC0188819981009759F02A8147
:100A40003B812617370730F081E0DF91CF911F916E
:100A50000F9108958B016F5F7F4F0E94A20E009748
:100A600059F0998388831B830A832C813D81232B32
:100A700059F7FC011082E8CF80E0E7CFCF93DF93F6
:100A8000EC0188819981009711F00E94190E19825A
:100A900018821D821C821B821A82DF91CF910895D9
:100AA000EF92FF920F931F93CF93DF93EC017B01A3
:100AB0008A01BA010E94160581110BC0CE010E9465
:100AC0003E05CE01DF91CF911F910F91FF90EF90E6
:100AD00008951D830C83B701888199810E94710F4D
:100AE000F0CFEF92FF920F931F93CF93DF93CDB789
:100AF000DEB762970FB6F894DEBF0FBECDBF8C0194
:100B0000CB01F801118210821382128215821482A5
:100B10004AE09E012F5F3F4F7901B9010E94CC0C42
:100B2000F70101900020E9F73197AF014E195F09F5
:100B3000B701C8010E94500562960FB6F894DEBF57
:100B40000FBECDBFDF91CF911F910F91FF90EF901E
:100B50000895FB01DC0111961C921E9213961C92C3
:100B60001E92129715961C921E921497861797073D
:100B700049F0608171816115710521F044815581D1
:100B80000C9450050895FC01118210821382128288
:100B900015821482FB0101900020E9F73197AF0123
:100BA000461B570B0C945005FC01808191810097E6
:100BB00011F00C94190E0895CF92DF92EF92FF92EC
:100BC0000F931F93CF93DF93CDB7DEB768970FB620
:100BD000F894DEBF0FBECDBF0E942801882361F1CB
:100BE00081E080936D0580936E0500916F051091F3
:100BF000700565E571E0C8010E94680F892B09F551
:100C000080E00E94BF0481E491E00E942E028AE10C
:100C100091E00E942E0283E091E00E942E0281E08A
:100C200091E00E942E028DEF90E00E942E0285ED51
:100C300090E00E942E024CC010926E0510E000E081
:100C4000D8CF6AE571E0C8010E94680F892B09F0CE
:100C500050C080E00E94BF0480912303882381F06C
:100C60006091770580917405909175050E94270227
:100C70006FE571E080917405909175050E941504EF
:100C80000E948C036B017C0180912303882301F176
:100C90006091770580917405909175050E942702F7
:100CA00000917405109175052AE0B701A601F7FEC1
:100CB0000CC06DE2C8010E94270244275527BA01E3
:100CC0004C195D096E097F092AE0C8010E9442049F
:100CD0000E94240468960FB6F894DEBF0FBECDBF05
:100CE000DF91CF911F910F91FF90EF90DF90CF9008
:100CF000089564E671E0C8010E94680F892B09F02D
:100D000021C180E00E94BF0480912303882381F0E9
:100D10006091770580917405909175050E94270276
:100D20006BE671E080917405909175050E94150441
:100D300089EC90E00E942E028FEB90E00E942E0240
:100D400081EB90E00E942E0282EA90E00E942E0247
:100D500082E990E00E942E028FE790E00E942E022E
:100D60000E94240462E771E083E00E94D40408E654
:100D700012E09EE1E92E91E0F92EC8010E94B20333
:100D8000882309F472C002E312E08EE0E82E81E0CD
:100D9000F82EC8010E94B2038111CEC06AE871E04A
:100DA000CE0143960E94C3056FE871E0CE010D9617
:100DB0000E94C305B801CE0107960E94A905F7015C
:100DC000C190D1907F0180E00E94BF048EE690E048
:100DD0000E942E0280912303882319F0C6010E94ED
:100DE0008E04BE01695F7F4FCE0101960E94A90566
:100DF000CE0101960E945C02CE0101960E94D405AC
:100E0000BE01635F7F4FCE0101960E94A905CE010E
:100E100001960E945C02CE0101960E94D405BE019B
:100E20006D5E7F4FCE0101960E94A905CE0101960D
:100E30000E945C02CE0101960E94D4050E94240407
:100E4000CE0107960E94D405CE010D960E94D405CE
:100E5000CE0143960E94D40565E070E080E090E00A
:100E60000E94F5010A5F1F4F94CF6EE771E0CE013B
:100E700043960E94C30563E871E0CE010D960E947F
:100E8000C305B801CE0107960E94A905F701C190DC
:100E9000D1907F0180E00E94BF0488E690E00E942C
:100EA0002E0280912303882319F0C6010E948E042C
:100EB000BE01695F7F4FCE0101960E94A905CE0158
:100EC00001960E945C02CE0101960E94D405BE01EB
:100ED000635F7F4FCE0101960E94A905CE01019666
:100EE0000E945C02CE0101960E94D405BE016D5E97
:100EF0007F4FCE0101960E94A905CE0101960E9466
:100F00005C02CE0101960E94D4050E942404CE0109
:100F100007960E94D405CE010D960E94D405CE01FD
:100F200043960E94D40565E070E080E090E00E9466
:100F3000F5010A5F1F4F21CF64E671E080E00E9457
:100F4000D404C6CE63E971E0C8010E94680F892B02
:100F500009F0C0CE81E08093280280E00E94BF04A7
:100F600085E790E066CE0F931F93CF93DF9300D079
:100F700000D000D0CDB7DEB78C0188E00E94BF045E
:100F8000B801CE0101960E94A90580912303882310
:100F9000B9F06091770580917405909175050E9474
:100FA000270280917405909175054D815E8169815C
:100FB0007A81DC01ED91FC910280F381E02D0995AD
:100FC000CE0101960E94D4050E94240426960FB6F5
:100FD000F894DEBF0FBECDBFDF91CF911F910F916F
:100FE00008951F920F920FB60F9211242F933F93E3
:100FF0008F939F93AF93BF9380912A0290912B027E
:10100000A0912C02B0912D023091290223E0230FF0
:101010002D3758F50196A11DB11D2093290280930B
:101020002A0290932B02A0932C02B0932D02809160
:101030002E0290912F02A0913002B09131020196C0
:10104000A11DB11D80932E0290932F02A093300218
:10105000B0933102BF91AF919F918F913F912F91AA
:101060000F900FBE0F901F90189526E8230F029641
:10107000A11DB11DD2CF1F920F920FB60F92112456
:101080002F933F934F935F936F937F938F939F9390
:10109000AF93BF93EF93FF9386E892E00E94FD0227
:1010A000FF91EF91BF91AF919F918F917F916F9140
:1010B0005F914F913F912F910F900FBE0F901F9016
:1010C00018951F920F920FB60F9211242F938F93A2
:1010D0009F93EF93FF93E0919602F09197028081A6
:1010E000E0919C02F0919D0282FD1BC09081809155
:1010F0009F028F5F8F732091A002821741F0E091D1
:101100009F02F0E0EA57FD4F958F80939F02FF9179
:10111000EF919F918F912F910F900FBE0F901F9085
:1011200018958081F4CF109289021092880288EE7F
:1011300093E0A0E0B0E080938A0290938B02A093AA
:101140008C02B0938D028AE291E0909387028093A3
:10115000860285EC90E0909393028093920284EC57
:1011600090E0909395028093940280EC90E09093AD
:1011700097028093960281EC90E09093990280937D
:10118000980282EC90E090939B0280939A0286EC06
:1011900090E090939D0280939C0210929F02109287
:1011A000A0021092A1021092A20210927A0510924F
:1011B000790586E892E09093750580937405109206
:1011C0002B038CE2809377058BE3809376058FE287
:1011D0008093780580E4809326038FE38093270330
:1011E000109225031092700510926F0510927205EF
:1011F0001092710581E080936D05EBE7F5E01192A7
:10120000119285E0EF3DF807D1F710922A036DE9BE
:1012100071E088E692E00E94C30565EA71E08EE61F
:1012200092E00E94C30568EA71E084E792E00E94C0
:10123000C3056CEA71E08AE792E00E94C30568E3A7
:1012400071E080E892E00E94C30561EB71E082E307
:1012500092E00E94C3056BEB71E088E392E00E948C
:10126000C30564EC71E08EE392E00E94C30562ED79
:1012700071E084E492E00E94C30562EE71E08AE4CA
:1012800092E00E94C30560EF71E080E592E00E9469
:10129000C30560E072E086E592E00E94C3056FE05E
:1012A00072E08CE592E00E94C30568E371E082E69B
:1012B00092E00C94C305CF93DF93CDB7DEB762976E
:1012C0000FB6F894DEBF0FBECDBF789484B58260B0
:1012D00084BD84B5816084BD85B5826085BD85B5DA
:1012E000816085BD80916E00816080936E00109258
:1012F00081008091810082608093810080918100D3
:101300008160809381008091800081608093800063
:101310008091B10084608093B1008091B0008160C1
:101320008093B00080917A00846080937A008091ED
:101330007A00826080937A0080917A008160809345
:101340007A0080917A00806880937A001092C100C0
:10135000E0919602F091970282E08083E091920200
:10136000F09193021082E0919402F091950280E155
:10137000808310929E02E0919A02F0919B0286E097
:101380008083E0919802F09199028081806180834E
:10139000E0919802F0919902808188608083E091C9
:1013A0009802F0919902808180688083E091980290
:1013B000F091990280818F7D808380912303811138
:1013C00009C083E00E94BF0486E491E00E942E02DF
:1013D0000E94240488EF94E090937A058093790525
:1013E0002CED35E030937C0520937B0523EC33E036
:1013F0003093800520937F0590938205809381052B
:1014000081EA93E0909388058093870510922702E4
:101410001092260216E0E0902602F09027021E9D10
:10142000C0011F9D900D112488599D4F0E94B20349
:1014300081113BC0F701EE0FFF1FE25EFE4F80817E
:1014400091819927FC01E357FE4F249187589E4FC5
:10145000FC0184918823C9F090E0880F991FFC015A
:10146000E55AFE4F45915491FC01E159FE4FA5917B
:10147000B4919FB7F894FA013081822F809583232D
:101480008083EC912E2B2C939FBF8091260290910C
:1014900027020196909327028093260265E070E070
:1014A00080E090E00E94F501B6CF109227021092E2
:1014B000260216E0E0902602F09027021E9DC00151
:1014C0001F9D900D11248E5C9D4F0E94B2038111CF
:1014D00040C0F701EE0FFF1FE25FFE4F8081918158
:1014E0009927FC01E357FE4F249187589E4FFC013A
:1014F0008491882399F090E0880F991FFC01E55AA8
:10150000FE4FA591B491FC01E159FE4F8591949154
:101510008FB7F894EC91E22BEC938FBFE09026020A
:10152000F0902702F701EE0FFF1FE25FFE4F60E031
:1015300080810E94A201FFEFEF1AFF0AF0922702BA
:10154000E092260265E070E080E090E00E94F50104
:10155000B1CF1092270210922602772473948091C3
:101560002802882309F4B4C038E6A32E32E0B32E53
:1015700040E0C42E41E0D42E5EE1852E51E0952E50
:10158000C5010E94B2038111A3C0D401ED90FD906A
:101590004D0197013327F901EF55FE4F8491F90171
:1015A000E357FE4F1491F901E758FE4F04910023D1
:1015B00009F442C081110E947901E02FF0E0EE0FA2
:1015C000FF1FEB59FE4FA591B491EC911E2391E0C2
:1015D00080E009F490E0092F182FF60180819181B5
:1015E0008017910709F45FC0B701CE010D96011570
:1015F000110529F10E947105BE01635F7F4FCE0185
:1016000007960E94A905EB84FC84F2E0EF0EF11C22
:10161000B701CE0107960E941605882329F12F8174
:1016200038858B859C8560E272E0820F931F0E9453
:10163000710FFC86EB861CC010E000E0CECF0E944C
:101640007105BE01635F7F4FCE0107960E94A90519
:10165000EB84FC8422E0E20EF11CB701CE01079678
:101660000E94160581112DC0CE0107960E943E05ED
:10167000BE01695F7F4FCE0101960E94A90580914E
:101680002303811104C0CE0101960E94B307CE014D
:1016900001960E94D405CE0107960E94D405CE0182
:1016A0000D960E94D405D6010D931D936D0164E142
:1016B00070E080E090E00E94F501B6E0AB0EB11C56
:1016C0005FCF2F8138858B859C8563E272E0ADCF3B
:1016D00080912A038111E5C0809174059091750570
:1016E000DC01ED91FC910084F185E02D0995892BB9
:1016F00009F4D7C08091740590917505DC01ED91D6
:10170000FC910084F185E02D099500E012E081153F
:10171000924064F48091740590917505DC01ED911F
:10172000FC910084F185E02D09958C01E090740511
:10173000F09075059CE6C92E93E0D92E5601912CA8
:10174000812C08151905B9F12FB7F89480912A0258
:1017500090912B02A0912C02B0912D022FBFF70186
:1017600080879187A287B387D701ED91FC9102848E
:10177000F385E02DC701099597FFA0C02FB7F89416
:1017800080912A0290912B02A0912C02B0912D02FF
:101790002FBFF7014085518562857385841B950BAA
:1017A000A60BB70B44815581668177818417950715
:1017B000A607B707C8F2F12CE12C0E151F0509F496
:1017C00087CFD6019D916D0110926C0530917805FF
:1017D0002091290390932903931304C0921302C00C
:1017E0001092290380912503E82FF0E040917605BF
:1017F000ED5DFC4F94133DC03217D9F1118688235B
:1018000021F070926C05109229031092250310921A
:10181000700510926F05109272051092710570920A
:101820006D05B0906C05B1E0BB1237C00E94280175
:10183000882341F1B0926D05B0926E0580916F05DD
:10184000909170050E94870C809324038233F8F4F2
:1018500020916E052223D9F0FC01FF27EE0FFF1F18
:10186000E558FA4F0190F081E02D309781F009950D
:1018700014C091878F5F8093250390912703891768
:1018800020F6CFCF10926E0590E080E0DDCFE091A2
:101890007905F0917A05309751F7EFEFEE1AFE0ACD
:1018A0008CCF80E090E0892B09F459CE0E94E902A8
:1018B000882309F452CE0E9400004FCED5018D93AB
:1018C0005D01BFEF8B1A9B0A3CCFCF93DF93C8E635
:1018D000D2E02697CE010E94D40582E0C233D80719
:1018E000C1F780E892E00E94D4058AE792E00E9466
:1018F000D40584E792E00E94D4058EE692E00E942F
:10190000D40588E692E0DF91CF910C94D405FC01D8
:1019100088279927E89421912032E9F3293010F0A3
:101920002E30C8F32B3241F02D3239F4689404C0C4
:101930000E94EC0C820F911D219120532A30C0F39C
:101940001EF4909581959F4F08951F93FC01992750
:101950008827BC01E89411911032E9F3193010F096
:101960001E30C8F31B3251F01D3249F4689406C092
:101970000E94D70C610F711D811D911D1191105393
:101980001A30B0F33EF490958095709561957F4F35
:101990008F4F9F4F1F910895BB274A3031F49923F1
:1019A00022F4BDE2909581959F4F0C94F50C592F30
:1019B000482F372F262F660F771F881F991F660F16
:1019C000771F881F991F620F731F841F951F660F53
:1019D000771F881F991F08957AE0979F902D879F02
:1019E000802D910D11240895BB27FB015527AA27AF
:1019F000880F991FAA1FA41710F0A41B839550519C
:101A0000B9F7A05DAA3308F0A95DA193009779F713
:101A1000B111B1931192CB010C940E0DDC01FC01BC
:101A2000672F71917723E1F7329704C07C916D9312
:101A300070836291AE17BF07C8F308952F923F924B
:101A40004F925F926F927F928F929F92AF92BF92CE
:101A5000CF92DF92EF92FF920F931F93CF93DF937A
:101A6000CDB7DEB7CA1BDB0B0FB6F894DEBF0FBED7
:101A7000CDBF09942A88398848885F846E847D8424
:101A80008C849B84AA84B984C884DF80EE80FD8026
:101A90000C811B81AA81B981CE0FD11D0FB6F8949C
:101AA000DEBF0FBECDBFED010895A1E21A2EAA1B25
:101AB000BB1BFD010DC0AA1FBB1FEE1FFF1FA217FE
:101AC000B307E407F50720F0A21BB30BE40BF50BFB
:101AD000661F771F881F991F1A9469F76095709584
:101AE000809590959B01AC01BD01CF010895EE0F4B
:101AF000FF1F0590F491E02D09940F931F93CF934E
:101B0000DF938230910510F482E090E0E091E105EE
:101B1000F091E20530E020E0B0E0A0E0309799F4E9
:101B20002115310509F44AC0281B390B2430310531
:101B3000D8F58A819B816115710589F1FB01938339
:101B40008283FE0111C040815181028113814817B7
:101B50005907E0F04817590799F4109761F0129669
:101B60000C93129713961C933296CF01DF91CF916D
:101B70001F910F9108950093E1051093E205F4CFB2
:101B80002115310551F04217530738F0A901DB0147
:101B90009A01BD01DF01F801C1CFEF01F9CF9093A8
:101BA000E2058093E105CDCFFE01E20FF31F8193A3
:101BB00091932250310939832883D7CF2091DF05B3
:101BC0003091E005232B41F420910A0130910B0163
:101BD0003093E0052093DF05209108013091090141
:101BE0002115310541F42DB73EB740910C015091BC
:101BF0000D01241B350BE091DF05F091E005E217A4
:101C0000F307A0F42E1B3F0B2817390778F0AC011F
:101C10004E5F5F4F2417350748F04E0F5F1F5093FC
:101C2000E0054093DF05819391939FCFF0E0E0E0E2
:101C30009CCFCF93DF930097E9F0FC01329713829A
:101C40001282A091E105B091E205ED0130E020E0C3
:101C50001097A1F420813181820F931F2091DF051D
:101C60003091E0052817390709F061C0F093E005CD
:101C7000E093DF05DF91CF910895EA01CE17DF07EA
:101C8000E8F54A815B819E0141155105B1F7E901F3
:101C9000FB83EA8349915991C40FD51FEC17FD07C7
:101CA00061F4808191810296840F951FE9019983E7
:101CB0008883828193819B838A83F0E0E0E012969F
:101CC0008D919C9113970097B9F52D913C911197A7
:101CD000CD010296820F931F2091DF053091E00520
:101CE0002817390739F6309751F51092E20510920E
:101CF000E105B093E005A093DF05BCCFD383C28399
:101D000040815181840F951FC817D90761F44E5F38
:101D10005F4F88819981480F591F518340838A8181
:101D20009B81938382832115310509F0B0CFF09315
:101D3000E205E093E1059ECFFD01DC01C0CF1382F7
:101D40001282D7CFB0E0A0E0E8EAFEE00C94200DCC
:101D50008C01009751F4CB010E947D0D8C01C801CC
:101D6000CDB7DEB7E0E10C943C0DFC01E60FF71FA8
:101D70009C0122503109E217F30708F49DC0D901F4
:101D8000CD91DC911197C617D70798F0C530D105D2
:101D900030F3CE0104978617970708F3C61BD70BBD
:101DA0002297C193D1936D937C93CF010E94190E1A
:101DB000D6CF5B01AC1ABD0A4C018C0E9D1EA091C2
:101DC000E105B091E205512C412CF12CE12C10974A
:101DD00031F58091DF059091E0058815990509F0AE
:101DE0005CC04616570608F058C0809108019091D3
:101DF0000901009741F48DB79EB740910C015091B5
:101E00000D01841B950BE817F90708F055C0F093F6
:101E1000E005E093DF05F90171836083A0CF8D9128
:101E20009C91119712966C90129713967C90139731
:101E3000A815B90559F56C0142E0C40ED11CCA14AD
:101E4000DB0420F1AC014A195B09DA0112961597FF
:101E500080F06282738251834083D9016D937C93B9
:101E6000E114F10471F0D7011396FC93EE931297ED
:101E700076CF22968C0F9D1FF90191838083F30109
:101E8000EFCFF093E205E093E10569CF48165906DC
:101E900008F42C017D01D3019ACFCB010E947D0D66
:101EA0007C01009749F0AE01B8010E945F0FC801A4
:101EB0000E94190E870153CF10E000E050CFFB01C4
:101EC000DC0102C001900D9241505040D8F70895B6
:101ED000FB01DC018D91019080190110D9F3990B60
:101EE0000895FB01DC0101900D920020E1F70895B7
:101EF00010E0CCEDD0E004C0FE010E94770D2196E9
:0A1F0000CD3DD107C9F7F894FFCFDB
:101F0A00FFFFFFFFFFFFFFFF0000E3058000030064
:101F1A000C000B0007000A000900060008000E006A
:101F2A000F0010001100000000001F037F02AC0226
:101F3A006C03DD02BB02CF02454E440053544152AA
:101F4A0054000D0A00554E4B4E4F574E20434F4DED
:101F5A004D414E4400494E49540050494E470050A5
:101F6A004F4E4700434F4E464947004F5054494F42
:101F7A004E00434F4E46494720444F4E450053506A
:101F8A0041445F53574954434800535041445F4CBE
:101F9A004544005343414E53544154450054524919
:101FAA0047474552005550004F464600444F574E4A
:101FBA00004241434B4C494748540053454C454E17
:101FCA004F4944004E4F53455F474541525F524582
:101FDA0044004E4F53455F474541525F475245457E
:101FEA004E004C4546545F474541525F52454400B6
:101FFA004C4546545F474541525F475245454E005E
:10200A0052494748545F474541525F52454400523E
:10201A00494748545F474541525F475245454E003C
:06202A002C30002C3100F7
:00000001FF
