:100000000C9480000C94A8000C94A8000C94A800F8
:100010000C94A8000C94A8000C94A8000C94A800C0
:100020000C94A8000C94A8000C94A8000C94A800B0
:100030000C94A8000C94A8000C94A8000C94A800A0
:100040000C94EB030C94A8000C94B9030C94930348
:100050000C94A8000C94A8000C94A8000C94A80080
:100060000C94A8000C94A8004E414E494E49545996
:10007000494E46CDCCCC3D0AD7233C17B7D1387773
:10008000CC2B329595E6241FB14F0A000020410089
:1000900000C84200401C4620BCBE4CCA1B0E5AAED3
:1000A000C59D7400000000240027002A0000000005
:1000B00000250028002B0000000000230026002956
:1000C0000004040404040404040202020202020301
:1000D000030303030301020408102040800102040B
:1000E000081020010204081020000000080002018E
:1000F00000000304070000000000000000004D04A1
:1001000011241FBECFEFD8E0DEBFCDBF26E0A0E3B5
:10011000B3E001C01D92A63DB207E1F713E0A0E0F5
:10012000B1E0EEE0F6E202C005900D92A033B10717
:10013000D9F710E0C0E8D0E004C02197FE010E948A
:100140002B0FCF37D107C9F70E947E040C940513FB
:100150000C940000AF92BF92CF92DF92EF92FF9289
:100160000F931F93CF93DF936C017B018B01040FDF
:10017000151FEB015E01AE18BF08C017D10759F07B
:100180006991D601ED91FC910190F081E02DC601BD
:100190000995892B79F7C501DF91CF911F910F91B7
:1001A000FF90EF90DF90CF90BF90AF900895FC014B
:1001B000538D448D252F30E0842F90E0821B930BCC
:1001C000541710F0CF96089501970895FC01918D72
:1001D000828D981761F0A28DAE0FBF2FB11D5D9675
:1001E0008C91928D9F5F9F73928F90E008958FEF17
:1001F0009FEF0895FC01918D828D981731F0828DCB
:10020000E80FF11D858D90E008958FEF9FEF089521
:10021000FC01918D228D892F90E0805C9F4F821B85
:1002200091098F73992708958FE593E00E94080143
:1002300021E0892B09F420E0822F089580E090E0EE
:10024000892B29F00E94140181110C94000008955B
:10025000FC01A48DA80FB92FB11DA35ABF4F2C913B
:10026000848D90E001968F739927848FA689B78932
:100270002C93A089B1898C91837080648C93938D29
:10028000848D981306C00288F389E02D80818F7DCC
:1002900080830895EF92FF920F931F93CF93DF9384
:1002A000EC0181E0888F9B8D8C8D98131AC0E889B2
:1002B000F989808185FF15C09FB7F894EE89FF8981
:1002C0006083E889F98980818370806480839FBF1F
:1002D00081E090E0DF91CF911F910F91FF90EF901F
:1002E0000895F62E0B8D10E00F5F1F4F0F7311272F
:1002F000E02E8C8D8E110CC00FB607FCFACFE8896A
:10030000F989808185FFF5CFCE010E942801F1CFC8
:10031000EB8DEC0FFD2FF11DE35AFF4FF0829FB7DD
:10032000F8940B8FEA89FB8980818062CFCFCF93CD
:10033000DF93EC01888D8823B9F0AA89BB89E8890D
:10034000F9898C9185FD03C0808186FD0DC00FB6B3
:1003500007FCF7CF8C9185FFF2CF808185FFEDCF31
:10036000CE010E942801E9CFDF91CF91089583301B
:1003700081F028F4813099F08230A9F00895873017
:10038000A9F08830C9F08430B1F4809180008F7D6D
:1003900003C0809180008F7780938000089584B59A
:1003A0008F7784BD089584B58F7DFBCF8091B00099
:1003B0008F778093B00008958091B0008F7DF9CF42
:1003C000CF93DF93282F30E0F901E751FF4F84915D
:1003D000F901EB52FF4FD491F901EF53FF4FC49154
:1003E000CC23A1F081110E94B701EC2FF0E0EE0FB9
:1003F000FF1FE954FF4FA591B491EC91ED2381E0EB
:1004000090E009F480E0DF91CF91089580E090E0E2
:10041000FACF1F93CF93DF93282F30E0F901E751F4
:10042000FF4F8491F901EB52FF4FD491F901EF5343
:10043000FF4FC491CC23A9F0162F81110E94B70160
:10044000EC2FF0E0EE0FFF1FE355FF4FA591B491A5
:100450008FB7F894EC91111108C0D095DE23DC938E
:100460008FBFDF91CF911F910895DE2BF8CFCF93EF
:10047000DF9390E0FC01EB52FF4F24918F539F4F8D
:10048000FC0184918823D1F090E0880F991FFC0132
:10049000ED55FF4FA591B491FC01E355FF4FC59178
:1004A000D491623071F49FB7F8943C91822F80957B
:1004B00083238C93E8812E2B28839FBFDF91CF91DC
:1004C00008958FB7F894EC912E2B2C938FBFF6CF15
:1004D0002FB7F894609135037091360380913703FC
:1004E000909138032FBF0895FB0101900020E9F798
:1004F0003197AF01461B570BDC01ED91FC91028057
:10050000F381E02D099466E974E08091FC039091F9
:10051000FD030E947402E6E9F4E001900020E9F78F
:10052000E75DF44041F468E171E08091FC03909153
:10053000FD030C9474020895880F991FFC01EE5F6F
:10054000F94F0190F081E02D309749F18081918140
:1005500097FD22C01F922EE32F931F9221E02F932D
:100560009F938F931F928BE68F931F928CE38F93B1
:100570008AE191E09F938F9386E994E09F938F9314
:100580000E9464100E9483028DB79EB70E960FB62C
:10059000F8949EBF0FBE8DBF90E080E008958FEF6E
:1005A0009FEF089577FD1EC01F922EE32F937F9338
:1005B0006F939F938F931F928CE38F9388E291E0C8
:1005C0009F938F9386E994E09F938F930E9464108A
:1005D0008DB79EB70C960FB6F8949EBF0FBE8DBF19
:1005E0000C94830208950F931F93CF93DF93C091D0
:1005F000CC06D091CD06C436D1056CF58C0180E1D6
:1006000090E00E94310FFC01DE01AA0FBB1FAE5F1C
:10061000B94FED93FC9315821482138302831386E2
:10062000128681E090E0958784878FEF9FEF91831A
:10063000808397878687CE0101969093CD0680931D
:10064000CC061092CF061092CE06CE01DF91CF914C
:100650001F910F910895CFEFDFEFF7CFEF92FF9249
:100660000F931F93CF93DF93C091CA06D091CB060F
:10067000C436D1050CF044C08B017C0184E290E0CB
:100680000E94310FFC01DE01AA0FBB1FA65CBA4F0E
:10069000ED93FC93178A168AF58AE48A81E090E04C
:1006A0009383828382E090E095838483118F008F0F
:1006B000168E178E10A211A288EC90E0A0E0B0E098
:1006C00084879587A687B78716821782108611863A
:1006D00013A212A28FEF9FEF91838083CE01019628
:1006E0009093CB068093CA061092CF061092CE0646
:1006F000CE01DF91CF911F910F91FF90EF90089560
:10070000CFEFDFEFF5CF1F93CF93DF93CCEFD3E0A5
:100710001F811F8280E094E00E94820B1F83DF9183
:10072000CF911F9108951F920F920FB60F9211242F
:100730002F933F934F935F936F937F938F939F93E9
:10074000AF93BF93EF93FF938FE593E00E9428014F
:10075000FF91EF91BF91AF919F918F917F916F9199
:100760005F914F913F912F910F900FBE0F901F906F
:1007700018951F920F920FB60F9211242F938F93FB
:100780009F93EF93FF93E0916F03F091700380814B
:10079000E0917503F091760382FD1BC090818091FA
:1007A00078038F5F8F7320917903821741F0E09176
:1007B0007803F0E0E15AFC4F958F80937803FF9126
:1007C000EF919F918F912F910F900FBE0F901F90DF
:1007D00018958081F4CF1F920F920FB60F921124BB
:1007E0002F933F938F939F93AF93BF938091350344
:1007F00090913603A0913703B091380330913403C0
:1008000023E0230F2D3758F50196A11DB11D20932C
:1008100034038093350390933603A0933703B0934A
:1008200038038091300390913103A0913203B0914D
:1008300033030196A11DB11D8093300390933103C2
:10084000A0933203B0933303BF91AF919F918F91E7
:100850003F912F910F900FBE0F901F90189526E893
:10086000230F0296A11DB11DD2CFFB0105900020E0
:10087000E9F7609570956E0F7F1FCB010895FA011F
:10088000DC012150304030F08D910590801919F431
:100890000020B9F7881B990B0895EFE5F3E0138268
:1008A00012828AE091E09183808385EC90E09587C5
:1008B000848784EC90E09787868780EC90E0918B2A
:1008C000808B81EC90E0938B828B82EC90E0958B17
:1008D000848B86EC90E0978B868B118E128E138E14
:1008E000148EF093FD03E093FC0384EF91E0A0E00D
:1008F000B0E084839583A683B7830895789484B504
:10090000826084BD84B5816084BD85B5826085BD0B
:1009100085B5816085BD80916E00816080936E0099
:10092000109281008091810082608093810080918B
:10093000810081608093810080918000816080933C
:1009400080008091B10084608093B1008091B000FC
:1009500081608093B00080917A00846080937A00F7
:1009600080917A00826080937A0080917A00816021
:1009700080937A0080917A00806880937A00109248
:10098000C10061E089E00E94370261E08AE00E94D4
:10099000370261E087E00E94370261E08BE00E944D
:1009A000370261E088E00E94370261E086E00E9441
:1009B000370262E080E10E94370262E08FE00E942D
:1009C000370262E081E10E943702E0916F03F0910B
:1009D000700382E08083E0916B03F0916C031082DE
:1009E000E0916D03F0916E0380E1808310927703B4
:1009F000E0917303F091740386E08083E0917103CA
:100A0000F0917203808180618083E0917103F091A5
:100A10007203808188608083E0917103F09172039A
:100A2000808180688083E0917103F09172038081FE
:100A30008F7D808384E391E090933905809338051E
:100A400010922F0510922E051092CB061092CA0616
:100A50001092CD061092CC061092CF061092CE06C0
:100A60001092FE0367E573E081E491E00E942E039B
:100A700063E573E089E691E00E942E036FE473E082
:100A800084E991E00E942E036BE473E08CEB91E02B
:100A90000E942E0367E473E087EE91E00E942E032C
:100AA00063E473E080E192E00E942E036FE373E061
:100AB0008CE392E00E942E0383E692E00E94F30210
:100AC00090933E0380933D0385E892E00E94F302F9
:100AD00090933A038093390386EA92E00E94F302EE
:100AE00090933C0380933B03C6E9D4E08091FC03E0
:100AF0009091FD03DC01ED91FC910084F185E02DE6
:100B000009952091FE03892B81F02C3381F080918F
:100B1000FC039091FD03DC01ED91FC910284F385CF
:100B2000E02D09958093FE03E1CF2C33C9F5E090C9
:100B3000FC03F090FD03BFEFCB2EB3E0DB2E10E003
:100B400000E00E946802F7016087718782879387BF
:100B5000D701ED91FC910284F385E02DC701099541
:100B600097FF9CC50E946802F70180849184A2844B
:100B7000B384681979098A099B0984809580A680C5
:100B8000B780681579058A059B0510F310939504C5
:100B9000009394040115110509F072C01092FE0330
:100BA0008091CE069091CF06892B09F47DC48CEFFD
:100BB000282E83E0382EF12CE12C9EE3B92E25E679
:100BC000A22E3CE3932E4DE2842E8091CA06909192
:100BD000CB06E816F9060CF4FEC202E016E0F12C92
:100BE000E12C8091CC069091CD06E816F9060CF028
:100BF0005BC4D801ED91FC918081918197FD3AC051
:100C00000E946802D801ED91FC9186809780A084B3
:100C1000B184681979098A099B096D32714081058F
:100C2000910540F18685978597FD12C40E94E001E9
:100C30006C01D801ED91FC9184859585C816D90683
:100C4000C9F060817181B1E0CB16D10409F0FBC31A
:100C50008AE690E00E94D2020E946802D801ED91DB
:100C6000FC916683778380879187D801ED91FC9111
:100C7000D586C486BFEFEB1AFB0A0E5F1F4FB1CFBC
:100C8000F801E450FC4F2EE323830E5F1F4F1093B7
:100C900095040093940404501C4FF8011282809133
:100CA000FF03813609F44FC074F4833309F49AC00A
:100CB000843309F4EDC0823309F070CF10922F0510
:100CC00010922E056BCF853609F40CC2863611F1D1
:100CD000843609F063CFEAE3F5E090E080E020910C
:100CE000CA063091CB06821793070CF057CFA1911B
:100CF000B19112962D913C911397225031092230D7
:100D0000310530F421E030E01B963C932E931A9786
:100D10000196E5CF2091CA063091CB06EAE3F5E0D3
:100D200090E080E0821793070CF085C1843691052E
:100D300009F481C101911191D8014D915C9157FD48
:100D4000FDC00196EFCF809138059091390500974D
:100D5000E1F01F922F939F938F931F9280E38F93C5
:100D60001F928CE38F9329EC32E03F932F93DF9314
:100D7000CF930E9464100E948302ADB7BEB71C9649
:100D80000FB6F894BEBF0FBEADBFE1E0F0E0F09348
:100D90002F05E0932E05EAE3F5E090E080E0209156
:100DA000CA063091CB0682179307A4F0E2E0F6E082
:100DB00090E080E02091CC063091CD068217930719
:100DC0000CF0ECCEA191B1914FEF5FEF4D935C939E
:100DD0000196F0CFA191B1912FEF3FEF2D933C936E
:100DE0000196DDCF10E000E08091CA069091CB061D
:100DF000081719070CF0D2CEF801EE0FFF1FE65CC2
:100E0000FA4FE080F180D70154966D917C91611585
:100E10007105F9F0FB0101900020E9F73197AF016E
:100E2000461B570B83E094E00E945610892B71F407
:100E3000F70180819181019649F40E948303D701D3
:100E40008D939C930091CA061091CB060F5F1F4FA4
:100E5000CBCFF70186889788092C000CAA08BB081D
:100E6000C501B4010E9435049C01B501A40183E0D1
:100E700094E00E943F04892B49F7D7018D919C9102
:100E8000019621F70E948303F70191838083DACFD3
:100E900010E000E08091CC069091CD06081719076C
:100EA0000CF07CCEF801EE0FFF1FEE5FF94FE080F3
:100EB000F180D70112966D917C9161157105F9F061
:100EC000FB0101900020E9F73197AF01461B570B5A
:100ED00083E094E00E945610892B71F4F701808121
:100EE0009181019649F40E948303D7018D939C93CD
:100EF0000091CC061091CD060F5F1F4FCBCFF701AD
:100F000084809580092C000CAA08BB08C501B40197
:100F10000E9435049C01B501A40183E094E00E9485
:100F20003F04892B49F7D7018D919C91019621F7B8
:100F30000E948303F70191838083DACFF801E4886C
:100F4000F58886809780A084B18420E030E048EC6A
:100F500052E4C501B4010E94BB0D0E94CD0ECB012D
:100F600064E670E00E94030FD82EC92EC501B401BB
:100F70000E94CD0ED80192962C91929793963C9117
:100F8000939712968C91129713969C911397E11454
:100F9000F10439F11F924EE34F93FF92EF92CF92FB
:100FA000DF927F936F933F932F939F938F931F9223
:100FB00082E68F931F928CE38F9382ED92E09F9352
:100FC0008F93DF93CF930E9464102DB73EB72C5EB2
:100FD0003F4F0FB6F8943EBF0FBE2DBF0E94830255
:100FE000DDCD1F924EE34F9357964C9157974F93F9
:100FF00056964C914F93CF92DF927F936F933F938E
:101000002F939F938F931F9282E68F931F928CE36F
:101010008F938EEE92E09F938F93DF93CF930E94F6
:1010200064102DB73EB72C5E3F4F0FB6F8943EBF0D
:101030000FBE2DBFD3CFA2E0B6E090E080E02091BC
:10104000CC063091CD06821793070CF035C3843659
:10105000910509F431C3ED91FD912081318137FD76
:1010600002C00196ECCF828193810097E1F01F923C
:101070002EE32F939F938F931F928DE68F931F9252
:101080008CE38F9349EC52E05F934F93DF93CF93C0
:101090000E946410EDB7FEB73C960FB6F894FEBF01
:1010A0000FBEEDBF9BCF1F928EE38F9385818F93F1
:1010B00084818F931F928DE68F931F928CE38F9381
:1010C0008AE093E09F938F93DF93CF930E94641005
:1010D0004DB75EB7445F5F4F0FB6F8945EBF0FBE6B
:1010E0004DBF7CCF0E9483037C0190E080E0209183
:1010F000CA063091CB06821793070CF04FCD8C01B6
:1011000001561F4F9801220F331FD901A450BC4F25
:101110005D01ED91FC9120813181E216F30609F029
:1011200058C0228133812D7F2130310509F051C013
:10113000848195810197F9F4C08CD18C90900D0435
:1011400010920D0483E094E00E94A00BF6016083EE
:1011500071838283938390920D04D501ED91FC916C
:10116000A08DB18D8D919D910D90BC91A02D828F00
:10117000938FA48FB58F000F111F04501C4FD801FF
:10118000ED91FC91848195810297F9F4C08CD18C0A
:10119000B0900D0410920D0483E094E00E947E0B49
:1011A000F6016083718382839383B0920D04D8012A
:1011B000ED91FC91A08DB18D8D919D910D90BC9183
:1011C000A02D868F978FA0A3B1A38091CA0690917E
:1011D000CB0601968CCF8101025C1E4FF801A081E5
:1011E000B1818D919C91119797FD11C012968D91AF
:1011F0009C9113970297029750F414968D919C91AD
:1012000015978130910551F0029709F486C0BFEF20
:10121000EB1AFB0AE2E02E0E311CD7CC5896ED916A
:10122000FC91599740815181628173815A968D91C9
:101230009D910D90BC91A02D481759076A077B0717
:1012400031F30E946802D801ED91FC9140885188E9
:1012500062887388AB01BC01441955096609770996
:1012600084859585A685B78521E0892B8A2B8B2BD4
:1012700029F482859385892B09F420E0822F90E060
:10128000B0E0A0E084179507A607B70708F0BFCF26
:101290008081918197FD21C01F92BF92008CF18DBA
:1012A000E02D21812F9320812F939F938F931F9265
:1012B000AF921F929F92EAE1F1E0FF93EF93DF93E9
:1012C000CF930E9464100E9483028DB79EB70E9642
:1012D0000FB6F8949EBF0FBE8DBFD801ED91FC9163
:1012E000A08DB18D8D919D910D90BC91A02D828F7F
:1012F000938FA48FB58FF801C080D1800E946802BF
:10130000D60150966D937D938D939C935397D801FE
:10131000ED91FC91138612867ACF5896ED91FC914F
:1013200059975E962D913D914D915C919197608179
:101330007181828193810E94550D81116CC0D80109
:10134000ED91FC9182859385892B09F460CFD801BA
:10135000ED91FC91C080D180D7FC4EC0008CF18D06
:10136000E02D40805180628073801F92BF9220E008
:1013700030E048EC52E4C301B2010E94BB0D0E9470
:10138000CD0ECB0164E670E00E94030F97FF03C00F
:101390009195819591099F938F93C301B2010E940A
:1013A000CD0E9B0177FF04C022273327261B370B66
:1013B0003F932F93DF92CF921F92AF921F929F92F3
:1013C000E3E1F3E0FF93EF93DF93CF930E94641088
:1013D0008DB79EB740960FB6F8949EBF0FBE8DBFD7
:1013E00020E030E0A901C301B2010E94550D87FD44
:1013F00080929B040E948302D801ED91FC91A08D04
:10140000B18D8D919D910D90BC91A02D868F978F60
:10141000A0A3B1A370CF0E946802D801ED91FC9106
:10142000408851886288738864197509860997090C
:101430004484558466847784461657066806790680
:1014400008F07DCF84CF89E690E00E94D2020DCCD7
:10145000A285B385109709F40DCC8D919C912485BC
:1014600035858217930709F405CC608171811816C0
:101470001906BCF48AE690E00E94D202D801ED91F0
:10148000FC91A285B3858D919C91958784870E945C
:101490006802D801ED91FC916683778380879187FC
:1014A000E9CB89E690E0E8CF8091CE069091CF0617
:1014B000892B09F4E6C00E94680200915B03109139
:1014C0005C0320915D0330915E03601B710B820B06
:1014D000930B693C71058105910508F4D2C00E9407
:1014E000680260935B0370935C0380935D03909349
:1014F0005E0320E030E0A90160915703709158032A
:101500008091590390915A030E94550D61E0811119
:1015100001C060E089E00E94090220E030E0A901FA
:101520006091530370915403809155039091560339
:101530000E94550D61E0811101C060E08AE00E94C7
:10154000090220E030E0A90160914F03709150033F
:1015500080915103909152030E94550D61E08111D9
:1015600001C060E087E00E94090220E030E0A901AC
:1015700060914B0370914C0380914D0390914E0309
:101580000E94550D61E0811101C060E08BE00E9476
:10159000090220E030E0A9016091470370914803FF
:1015A0008091490390914A030E94550D61E0811199
:1015B00001C060E088E00E94090220E030E0A9015B
:1015C00060914303709144038091450390914603D9
:1015D0000E94550D61E0811101C060E086E00E942B
:1015E000090220E030E040E05FE360913F0370914A
:1015F000400380914103909142030E94550D88233E
:10160000D9F080E10E94E001892B31F480913D0303
:1016100090913E030E949C0220E030E040E85FE3AE
:1016200060913F0370914003809141039091420388
:101630000E94550D8823D1F081E10E94E001892BA1
:1016400031F480913B0390913C030E949C0220E086
:1016500030E0A90160913F03709140038091410304
:10166000909142030E94550D882359F08FE00E940B
:10167000E001892B31F48091390390913A030E9463
:101680009C0280E090E0892B09F430CA0E9414018A
:10169000882309F42BCA0E94000028CA8E339105C2
:1016A00009F474CAD6018D936D010F5F1F4F053980
:1016B000110509F046CA6ACAE1E0F0E0F093CF06EE
:1016C000E093CE061F928EE38F931F9283E68F9353
:1016D0001F928CE38F9328E233E03F932F93DF93A5
:1016E000CF930E9464100E948302ADB7BEB71A96D2
:1016F0000FB6F894BEBF0FBEADBF50CA662777279E
:101700000C94E40BFC0188279927E894219120325E
:10171000E9F3293010F02E30C8F32B3241F02D328E
:1017200039F4689404C00E94DC0B820F911D219152
:1017300020532A30C0F31EF4909581959F4F089551
:101740001F93FC0199278827BC01E894119110325E
:10175000E9F3193010F01E30C8F31B3251F01D327E
:1017600049F4689406C00E94C70B610F711D811D6A
:10177000911D119110531A30B0F33EF4909580955D
:10178000709561957F4F8F4F9F4F1F910895592FEF
:10179000482F372F262F660F771F881F991F660F38
:1017A000771F881F991F620F731F841F951F660F75
:1017B000771F881F991F08957AE0979F902D879F24
:1017C000802D910D11240895B0E0A0E0EAEEFBE039
:1017D0000C948D0E5C017B016115710519F0DB0124
:1017E0008D939C9385010F5F1F4FF501D0818D2F45
:1017F00090E00E94340D6C01892BB9F5DD32B9F50A
:101800000F5F1F4FD5011196DC91C1E05801F1E047
:10181000AF1AB10843E050E060E770E0C5010E94F4
:101820003D0D892B69F5680182E0C80ED11C45E0A9
:1018300050E06BE670E0C6010E943D0D892B21F45B
:10184000680197E0C90ED11CE114F10419F0D70129
:10185000CD92DC9260E070E080E89FEFC111FFC0A4
:1018600060E070E080E89FE7FAC05801BBCFDB3250
:1018700029F485010E5F1F4FF501D181C0E0C6CF6D
:1018800043E050E068E670E0C5010E943D0D892B01
:10189000E9F0F80110E000E020E030E0A9015F018C
:1018A000B0ED8B2E8D0E89E08815C8F19C2E6894C2
:1018B00091F88C2F8870C2FF16C0811102C00F5F93
:1018C0001F4F3196D501DC91C92DE9CFE114F10408
:1018D00029F00E5F1F4FF7011183008360E070E075
:1018E00080EC9FE7BCC0882311F001501109A5E0EE
:1018F000B0E00E947C0E9B01AC01220F331F441FFD
:10190000551F280D311D411D511D283999E93907F1
:10191000490799E15907A8F2C6609C2ED2CFAEEFD5
:101920008A1206C0C3FD3CC09C2E689493F8C9CFB0
:10193000DF7DD534A9F580818D3239F4C061DF01B6
:101940001296818162E070E006C0DF018B32C1F344
:10195000119661E070E080535D01A61AB70A8A30E3
:10196000F8F4E0E8CE16ECE0DE065CF4B601660FB3
:10197000771F660F771FC60ED71ECC0CDD1CC80E56
:10198000D11C5D01FFEFAF1ABF0A8C9180538A30E2
:10199000A8F1C4FF03C0D194C194D1080C0D1D1D42
:1019A000C1FF09C0E114F10431F081E0A81AB108C7
:1019B000D701AD92BC92CA01B9010E945A0DC37001
:1019C000C33009F490584B015C0120E030E0A901DC
:1019D0000E94550D882309F440C0CFE9D0E017FFDD
:1019E00005C0119501951109C7E8D0E06E01B8E175
:1019F000CB1AD10880E2E82EF12C0FC0D501B1CF6F
:101A0000FE0125913591459154910E191F09C5018B
:101A1000B4010E94BB0D4B015C01D501C4010E1540
:101A20001F0574F72497F594E794CC16DD06A9F703
:101A30008A2F880F8B2F881F8F3F49F020E030E0DE
:101A4000A901C501B4010E94550D811106C082E2B1
:101A500090E09093D1068093D006C501B401CDB734
:101A6000DEB7ECE00C94A90E91110C94280E803294
:101A700019F089508550C8F70895FB01DC014150E9
:101A8000504088F08D9181341CF08B350CF4805ED1
:101A9000659161341CF06B350CF4605E861B61113E
:101AA00071F3990B0895881BFCCF0E94970D08F4E1
:101AB00081E00895E89409C097FB3EF490958095E5
:101AC000709561957F4F8F4F9F4F9923A9F0F92F04
:101AD00096E9BB279395F695879577956795B79582
:101AE000F111F8CFFAF4BB0F11F460FF1BC06F5F68
:101AF0007F4F8F4F9F4F16C0882311F096E911C07A
:101B0000772321F09EE8872F762F05C0662371F09A
:101B100096E8862F70E060E02AF09A95660F771FAE
:101B2000881FDAF7880F9695879597F90895990F8A
:101B30000008550FAA0BE0E8FEEF16161706E80797
:101B4000F907C0F012161306E407F50798F0621BB8
:101B5000730B840B950B39F40A2661F0232B242B8D
:101B6000252B21F408950A2609F4A140A6958FEFAC
:101B7000811D811D08950E94CE0D0C94420E0E947D
:101B8000340E38F00E943B0E20F0952311F00C9497
:101B90002B0E0C94310E11240C94760E0E94530ED1
:101BA00070F3959FC1F3950F50E0551F629FF001B0
:101BB000729FBB27F00DB11D639FAA27F00DB11DC9
:101BC000AA1F649F6627B00DA11D661F829F222752
:101BD000B00DA11D621F739FB00DA11D621F839FD9
:101BE000A00D611D221F749F3327A00D611D231FAF
:101BF000849F600D211D822F762F6A2F11249F57FD
:101C000050409AF0F1F088234AF0EE0FFF1FBB1FFF
:101C1000661F771F881F91505040A9F79E3F5105BE
:101C200080F00C942B0E0C94760E5F3FE4F3983EFC
:101C3000D4F3869577956795B795F795E7959F5F68
:101C4000C1F7FE2B880F911D9695879597F90895FA
:101C500099278827089597F99F6780E870E060E0EA
:101C600008959FEF80EC089500240A941616170635
:101C700018060906089500240A941216130614067D
:101C800005060895092E0394000C11F4882352F0E0
:101C9000BB0F40F4BF2B11F460FF04C06F5F7F4F98
:101CA0008F4F9F4F089557FD9058440F551F59F07F
:101CB0005F3F71F04795880F97FB991F61F09F3F39
:101CC00079F087950895121613061406551FF2CF62
:101CD0004695F1DF08C0161617061806991FF1CFB2
:101CE00086957105610508940895E894BB276627D9
:101CF0007727CB0197F908950E94BE0EA59F900DFE
:101D0000B49F900DA49F800D911D112408952F92D2
:101D10003F924F925F926F927F928F929F92AF927B
:101D2000BF92CF92DF92EF92FF920F931F93CF93C8
:101D3000DF93CDB7DEB7CA1BDB0B0FB6F894DEBF5F
:101D40000FBECDBF09942A88398848885F846E8485
:101D50007D848C849B84AA84B984C884DF80EE80CF
:101D6000FD800C811B81AA81B981CE0FD11D0FB6D8
:101D7000F894DEBF0FBECDBFED010895A29FB00164
:101D8000B39FC001A39F700D811D1124911DB29FAF
:101D9000700D811D1124911D08950E94D40E689428
:101DA000B1110C94760E08950E945B0E88F09F5737
:101DB00098F0B92F9927B751B0F0E1F0660F771F6F
:101DC000881F991F1AF0BA95C9F714C0B13091F065
:101DD0000E94750EB1E008950C94750E672F782F50
:101DE0008827B85F39F0B93FCCF38695779567952A
:101DF000B395D9F73EF490958095709561957F4F96
:101E00008F4F9F4F089597FB072E16F4009407D02D
:101E100077FD09D00E94170F07FC05D03EF490957E
:101E200081959F4F0895709561957F4F0895AA1BE6
:101E3000BB1B51E107C0AA1FBB1FA617B70710F0B5
:101E4000A61BB70B881F991F5A95A9F780959095E7
:101E5000BC01CD010895EE0FFF1F0590F491E02D18
:101E600009940F931F93CF93DF938230910510F461
:101E700082E090E0E091D406F091D50630E020E0D9
:101E8000B0E0A0E0309799F42115310509F44AC07B
:101E9000281B390B24303105D8F58A819B816115C7
:101EA000710589F1FB0193838283FE0111C040819A
:101EB00051810281138148175907E0F048175907EB
:101EC00099F4109761F012960C93129713961C9345
:101ED0003296CF01DF91CF911F910F91089500931A
:101EE000D4061093D506F4CF2115310551F04217D1
:101EF000530738F0A901DB019A01BD01DF01F801A8
:101F0000C1CFEF01F9CF9093D5068093D406CDCF02
:101F1000FE01E20FF31F819391932250310939831F
:101F20002883D7CF2091D2063091D306232B41F4BA
:101F300020910201309103013093D3062093D20601
:101F400020910001309101012115310541F42DB797
:101F50003EB74091040150910501241B350BE091DF
:101F6000D206F091D306E217F307A0F42E1B3F0B25
:101F70002817390778F0AC014E5F5F4F24173507FB
:101F800048F04E0F5F1F5093D3064093D2068193C3
:101F900091939FCFF0E0E0E09CCFCF93DF93009749
:101FA000E9F0FC01329713821282A091D406B0911D
:101FB000D506ED0130E020E01097A1F420813181B9
:101FC000820F931F2091D2063091D306281739072C
:101FD00009F061C0F093D306E093D206DF91CF9170
:101FE0000895EA01CE17DF07E8F54A815B819E017B
:101FF00041155105B1F7E901FB83EA8349915991F4
:10200000C40FD51FEC17FD0761F480819181029602
:10201000840F951FE90199838883828193819B8333
:102020008A83F0E0E0E012968D919C9113970097DF
:10203000B9F52D913C911197CD010296820F931F16
:102040002091D2063091D3062817390739F63097F8
:1020500051F51092D5061092D406B093D306A093F2
:10206000D206BCCFD383C28340815181840F951F98
:10207000C817D90761F44E5F5F4F88819981480F77
:10208000591F518340838A819B81938382832115C9
:10209000310509F0B0CFF093D506E093D4069ECF7A
:1020A000FD01DC01C0CF13821282D7CFFB01DC011E
:1020B0004150504030F08D910190801919F400206A
:1020C000B9F7881B990B0895AEE0B0E0EAE6F0E1BD
:1020D0000C94950E0D891E8986E08C831A830983E2
:1020E0008FEF9FE79E838D83AE01475E5F4F6F89C1
:1020F000788DCE0101960E9487102F813885020FBE
:10210000131FF80110822E96E4E00C94B10EABE0A0
:10211000B0E0EDE8F0E10C94870E7C013B018A0110
:10212000FC0117821682838181FFC8C1CE0101960E
:102130005C01F7019381F30193FD859193FF8191F8
:102140003F01882309F453C1853239F493FD859109
:1021500093FF81913F01853229F4B70190E00E94FD
:102160007712E7CF912C212C312CFFE1F31538F0B9
:102170008B3211F190F4803209F1833229F137FC6E
:102180003CC020ED280F2A3050F536FE20C08AE0F2
:10219000989E200D1124922E06C08D3291F080332E
:1021A00071F7689430F8F30193FD859193FF819165
:1021B0003F018111DACF21C0689431F8689432F878
:1021C000F2CF689433F8EFCF689434F8ECCFEAE0BC
:1021D0002E9E200D1124222E689435F8E4CF8E32E5
:1021E00029F436FC04C1689436F8DDCF8C3619F436
:1021F000689437F8D8CF8836B1F2982F9F7D9554E0
:102200009330E0F08336A1F18337C1F1833509F0D3
:1022100063C02801F2E04F0E511CF801C080D1804C
:10222000692D70E036FC02C06FEF7FEFC6010E949F
:1022300061124C01689437F882010AC00C5F1F4F8D
:10224000FFE3F98388248394912C6501E89437F89F
:1022500033FE2DC0522C8114910471F5552009F4E0
:1022600068CFB70180E290E00E9477125A94F6CFCF
:10227000F801808189830E5F1F4FE4CF2801F2E0CF
:102280004F0E511CF801C080D180692D70E036FCE2
:1022900002C06FEF7FEFC6010E946C124C018201F9
:1022A000D5CFB70180E290E00E9477122A942814DB
:1022B000190409F0B0F7CECFF60137FC859137FE4F
:1022C00081916F01B70190E00E94771251105A94EA
:1022D000F1E08F1A9108BFCF843619F0893609F0E2
:1022E00077C0F80137FE6BC0608171818281938174
:1022F0000C5F1F4FF32DFF763F2E97FF09C090957F
:102300008095709561957F4F8F4F9F4F689437F8F8
:102310002AE030E0A5010E94A712C82ECA188C2C12
:10232000432C36FE0CC0E89440F8C91440F434FE47
:1023300005C032FC03C0F32DFE7E4F2E892C44FED7
:1023400095C0FE01EC0DF11D8081803309F087C03E
:10235000242D297E422E842D8870582E43FC95C052
:1023600040FE8FC09C2C821418F42C0C922C9818D0
:1023700044FE91C0B70180E390E00E94771242FED4
:1023800009C088E790E041FE02C088E590E0B7010F
:102390000E947712C91408F48AC0CA94D12C9FEF06
:1023A000C91AD90ACA0CDB1CF60182916F01B70168
:1023B00090E00E947712AC14BD04B1F74FCF60815A
:1023C0007181072E000C880B990B0E5F1F4F92CF67
:1023D000D32CE894D4F82AE030E0853739F1232D66
:1023E000297FD22E8F3601F148F48835A9F0F70104
:1023F000868197812B96E2E10C94A30E803749F0F9
:102400008837A9F7D4FE02C06894D2F820E130E002
:102410000DC06894D4F8F6CF34FE03C0822F8660D6
:10242000D82E20E132E002C028E030E0F801D7FEEB
:102430000FC060817181828193810C5F1F4FA50164
:102440000E94A712C82ECA183D2CE89437F867CF0F
:102450006081718190E080E00E5F1F4FF0CF42FC01
:1024600002C0839478CF8394839475CF842D86782B
:1024700009F471CFF6CFB70180E290E00E947712A5
:1024800083948214C0F3512C73CF522C58188214A9
:1024900008F46ECFF8CF842D867809F47BCF8BE2D9
:1024A00041FE80E247FC8DE2B70190E071CFB701B9
:1024B00080E390E00E9477129A946CCF8FEF9FEFA9
:1024C00099CFFC010590615070400110D8F78095BC
:1024D00090958E0F9F1F0895FC01615070400190F0
:1024E0000110D8F7809590958E0F9F1F08950F9338
:1024F0001F93CF93DF93182F092FEB018B8181FD61
:1025000009C01FEF0FEF812F902FDF91CF911F9107
:102510000F91089582FF14C02E813F818C819D818F
:10252000281739073CF4E881F981CF010196998396
:10253000888310838E819F8101969F838E83E3CF52
:10254000E885F985812F0995892BA1F3DACFFA0166
:10255000AA27283051F1203181F1E8946F936E7FE2
:102560006E5F7F4F8F4F9F4FAF4FB1E03ED0B4E0D3
:102570003CD0670F781F891F9A1FA11D680F791F14
:102580008A1F911DA11D6A0F711D811D911DA11D25
:1025900020D009F468943F912AE0269F1124301935
:1025A000305D3193DEF6CF010895462F4770405DD0
:1025B0004193B3E00FD0C9F7F6CF462F4F70405D7F
:1025C0004A3318F0495D31FD4052419302D0A9F7DA
:1025D000EACFB4E0A6959795879577956795BA95D4
:1025E000C9F700976105710508959B01AC010A2E9A
:1025F00006945795479537952795BA95C9F7620F71
:0E260000731F841F951FA01D0895F894FFCF2F
:10260E000000D6068000000000004A01AA00D70094
:10261E0097010801E600FA002000256325632533A3
:10262E002E336925692563002563256325332E33F3
:10263E00692563004C616E64696E6720476561723F
:10264E00006C616D696E61722F423733382F616E87
:10265E006E756E636961746F722F6C6566745F67F9
:10266E006561725F73616665006C616D696E617242
:10267E002F423733382F616E6E756E636961746FDA
:10268E00722F6C6566745F676561725F7472616EDE
:10269E00736974006C616D696E61722F42373338E5
:1026AE002F616E6E756E636961746F722F6E6F73CC
:1026BE00655F676561725F73616665006C616D6908
:1026CE006E61722F423733382F616E6E756E63698D
:1026DE0061746F722F6E6F73655F676561725F7481
:1026EE0072616E736974006C616D696E61722F42F6
:1026FE003733382F616E6E756E636961746F722F2A
:10270E0072696768745F676561725F7361666500A1
:10271E006C616D696E61722F423733382F616E6E48
:10272E00756E636961746F722F72696768745F6723
:10273E006561725F7472616E736974006C616D694C
:10274E006E61722F423733382F636F6E74726F6CF7
:10275E00732F676561725F68616E646C655F646F2D
:10276E00776E006C616D696E61722F423733382F50
:10277E00707573685F627574746F6E2F67656172C2
:10278E005F6F6666006C616D696E61722F423733E2
:10279E00382F707573685F627574746F6E2F67650E
:1027AE0061725F7570006C616D696E61722F423778
:1027BE0033382F707573685F627574746F6E2F6720
:1027CE006561725F646F776E0025632563257325DF
:1027DE0063002563256325312E316925322E32693A
:1027EE00253035692E253032692573256300256322
:1027FE00256325312E316925322E32692530356912
:10280E002E25303269255325630025632563255314
:10281E002563002563256325332E336925303769FB
:10282E002E2530326925630025632563256300005C
:00000001FF
